:040000008A111F2F13
:100E3E0083018A11972F83160313910107308312B2
:100E4E00031399008316031387118312031387115B
:100E5E008316031307118710071005118712071247
:100E6E0085120512851005100800F2008312031377
:100E7E0007100310003003180130F3000430730222
:100E8E00031C4A2F4B2F4D2F662F662F07117218FA
:100E9E00512F552F831203138714582F83120313C8
:100EAE0087100310F20C07150130F1007108F307DB
:100EBE0004307302031C642F652F4D2F662F031011
:100ECE00003003180130F30008307302031C702F3A
:100EDE00712F732F8B2F8B2F07117018772F7B2F5E
:100EEE008312031387147E2F8312031387100310AC
:100EFE00F00C07150130F1007108F307083073028A
:100F0E00031C8A2F8B2F732F0714F930F100640006
:100F1E00F10B8E2F922F640083120313071008001B
:100F2E008A1122278A110D30F500FB30F400F40BE4
:100F3E009E2FF50B9E2FA32F831203130511053041
:100F4E00F4007408F0000E308A113C278A11B43078
:100F5E00F4007408F00001308A113C278A11053024
:100F6E00F4007408F00002308A113C278A111D30FB
:100F7E00F4007408F00003308A113C278A112F30D8
:100F8E00F4007408F00004308A113C278A111A30DC
:100F9E00F4007408F00008308A113C278A11F00121
:100FAE000314F00D00308A113C278A11DE2F8312B4
:100FBE00031387150630F6000E30F500B030F4003E
:100FCE00F40BE72FF50BE72FF60BE72F8312031326
:100FDE0087110630F6000E30F500B030F400F40B39
:100FEE00F62FF50BF62FF60BF62FDE2FDE2F8A11CE
:020FFE000028C9
:02400E00F4308C
:00000001FF
